{
  "contractName": "BDML",
  "abi": [
    {
      "inputs": [],
      "stateMutability": "nonpayable",
      "type": "constructor"
    },
    {
      "anonymous": false,
      "inputs": [
        {
          "indexed": false,
          "internalType": "uint256",
          "name": "blockNumber",
          "type": "uint256"
        },
        {
          "indexed": false,
          "internalType": "string",
          "name": "model",
          "type": "string"
        }
      ],
      "name": "blockUpdate",
      "type": "event"
    },
    {
      "anonymous": false,
      "inputs": [
        {
          "indexed": false,
          "internalType": "uint256",
          "name": "numTxns",
          "type": "uint256"
        },
        {
          "indexed": false,
          "internalType": "uint256",
          "name": "blockNumber",
          "type": "uint256"
        }
      ],
      "name": "tnxUpdate",
      "type": "event"
    },
    {
      "inputs": [],
      "name": "blockNum",
      "outputs": [
        {
          "internalType": "uint256",
          "name": "",
          "type": "uint256"
        }
      ],
      "stateMutability": "view",
      "type": "function",
      "constant": true
    },
    {
      "inputs": [
        {
          "internalType": "uint256",
          "name": "",
          "type": "uint256"
        }
      ],
      "name": "blocks",
      "outputs": [
        {
          "internalType": "string",
          "name": "",
          "type": "string"
        }
      ],
      "stateMutability": "view",
      "type": "function",
      "constant": true
    },
    {
      "inputs": [],
      "name": "getOwner",
      "outputs": [
        {
          "internalType": "address",
          "name": "",
          "type": "address"
        }
      ],
      "stateMutability": "view",
      "type": "function",
      "constant": true
    },
    {
      "inputs": [],
      "name": "isOwner",
      "outputs": [
        {
          "internalType": "bool",
          "name": "",
          "type": "bool"
        }
      ],
      "stateMutability": "view",
      "type": "function",
      "constant": true
    },
    {
      "inputs": [],
      "name": "numParticipants",
      "outputs": [
        {
          "internalType": "uint256",
          "name": "",
          "type": "uint256"
        }
      ],
      "stateMutability": "view",
      "type": "function",
      "constant": true
    },
    {
      "inputs": [],
      "name": "numTxns",
      "outputs": [
        {
          "internalType": "uint256",
          "name": "",
          "type": "uint256"
        }
      ],
      "stateMutability": "view",
      "type": "function",
      "constant": true
    },
    {
      "inputs": [
        {
          "internalType": "uint256",
          "name": "",
          "type": "uint256"
        }
      ],
      "name": "transactions",
      "outputs": [
        {
          "internalType": "uint256",
          "name": "index",
          "type": "uint256"
        },
        {
          "internalType": "string",
          "name": "model",
          "type": "string"
        },
        {
          "internalType": "address",
          "name": "modelCreator",
          "type": "address"
        },
        {
          "internalType": "uint256",
          "name": "votes",
          "type": "uint256"
        }
      ],
      "stateMutability": "view",
      "type": "function",
      "constant": true
    },
    {
      "inputs": [
        {
          "internalType": "address",
          "name": "_person",
          "type": "address"
        }
      ],
      "name": "addParticipants",
      "outputs": [],
      "stateMutability": "nonpayable",
      "type": "function"
    },
    {
      "inputs": [
        {
          "internalType": "string",
          "name": "_model",
          "type": "string"
        }
      ],
      "name": "uploadModel",
      "outputs": [],
      "stateMutability": "nonpayable",
      "type": "function"
    },
    {
      "inputs": [
        {
          "internalType": "uint256",
          "name": "_txnNum",
          "type": "uint256"
        }
      ],
      "name": "getModel",
      "outputs": [
        {
          "internalType": "string",
          "name": "",
          "type": "string"
        }
      ],
      "stateMutability": "view",
      "type": "function",
      "constant": true
    },
    {
      "inputs": [
        {
          "internalType": "uint256",
          "name": "_modelNumber",
          "type": "uint256"
        }
      ],
      "name": "voting",
      "outputs": [],
      "stateMutability": "nonpayable",
      "type": "function"
    }
  ],
  "bytecode": "0x60806040523480156200001157600080fd5b50336000806101000a81548173ffffffffffffffffffffffffffffffffffffffff021916908373ffffffffffffffffffffffffffffffffffffffff160217905550600560008054906101000a900473ffffffffffffffffffffffffffffffffffffffff169080600181540180825580915050600190039060005260206000200160009091909190916101000a81548173ffffffffffffffffffffffffffffffffffffffff021916908373ffffffffffffffffffffffffffffffffffffffff16021790555060016004819055506040518060400160405280600381526020017f307830000000000000000000000000000000000000000000000000000000000081525060016000600254815260200190815260200160002090805190602001906200013d92919062000144565b5062000259565b8280546200015290620001f4565b90600052602060002090601f016020900481019282620001765760008555620001c2565b82601f106200019157805160ff1916838001178555620001c2565b82800160010185558215620001c2579182015b82811115620001c1578251825591602001919060010190620001a4565b5b509050620001d19190620001d5565b5090565b5b80821115620001f0576000816000905550600101620001d6565b5090565b600060028204905060018216806200020d57607f821691505b602082108114156200022457620002236200022a565b5b50919050565b7f4e487b7100000000000000000000000000000000000000000000000000000000600052602260045260246000fd5b61159d80620002696000396000f3fe608060405234801561001057600080fd5b50600436106100a95760003560e01c8063893d20e811610071578063893d20e8146101525780638ae63d6d146101705780638f32d59b1461018e5780639ace38c2146101ac578063f25b3f99146101df578063fd4a77f11461020f576100a9565b80634132df82146100ae5780634e76a846146100ca5780635958d7e1146100e85780636d36169414610104578063819b0b1e14610134575b600080fd5b6100c860048036038101906100c39190610d61565b61022b565b005b6100d2610363565b6040516100df919061101b565b60405180910390f35b61010260048036038101906100fd9190610d38565b610369565b005b61011e60048036038101906101199190610da2565b6104be565b60405161012b9190610f39565b60405180910390f35b61013c6105ae565b604051610149919061101b565b60405180910390f35b61015a6105b4565b6040516101679190610f03565b60405180910390f35b6101786105dd565b604051610185919061101b565b60405180910390f35b6101966105e3565b6040516101a39190610f1e565b60405180910390f35b6101c660048036038101906101c19190610da2565b61063a565b6040516101d69493929190611066565b60405180910390f35b6101f960048036038101906101f49190610da2565b610712565b6040516102069190610f39565b60405180910390f35b61022960048036038101906102249190610da2565b6107b2565b005b61023433610aa4565b610273576040517f08c379a000000000000000000000000000000000000000000000000000000000815260040161026a90610fdb565b60405180910390fd5b60036000815480929190610286906112c4565b9190505550600060066000600354815260200190815260200160002090506003548160000181905550818160010190805190602001906102c7929190610c03565b50338160020160006101000a81548173ffffffffffffffffffffffffffffffffffffffff021916908373ffffffffffffffffffffffffffffffffffffffff160217905550600160045461031a91906111a3565b81600301819055507f36ef8d5a24dcb96afa09cf8690c20da87664c76584327ef7a6aac89f52081d826003546002546040516103579291906110b2565b60405180910390a15050565b60045481565b6103716105e3565b6103b0576040517f08c379a00000000000000000000000000000000000000000000000000000000081526004016103a790610f9b565b60405180910390fd5b6000600354146103f5576040517f08c379a00000000000000000000000000000000000000000000000000000000081526004016103ec90610f5b565b60405180910390fd5b6103fe81610aa4565b1561043e576040517f08c379a000000000000000000000000000000000000000000000000000000000815260040161043590610fbb565b60405180910390fd5b6005819080600181540180825580915050600190039060005260206000200160009091909190916101000a81548173ffffffffffffffffffffffffffffffffffffffff021916908373ffffffffffffffffffffffffffffffffffffffff1602179055506001600460008282546104b4919061114d565b9250508190555050565b60606104c933610aa4565b610508576040517f08c379a00000000000000000000000000000000000000000000000000000000081526004016104ff90610fdb565b60405180910390fd5b60066000838152602001908152602001600020600101805461052990611261565b80601f016020809104026020016040519081016040528092919081815260200182805461055590611261565b80156105a25780601f10610577576101008083540402835291602001916105a2565b820191906000526020600020905b81548152906001019060200180831161058557829003601f168201915b50505050509050919050565b60035481565b60008060009054906101000a900473ffffffffffffffffffffffffffffffffffffffff16905090565b60025481565b60008060009054906101000a900473ffffffffffffffffffffffffffffffffffffffff1673ffffffffffffffffffffffffffffffffffffffff163373ffffffffffffffffffffffffffffffffffffffff1614905090565b600660205280600052604060002060009150905080600001549080600101805461066390611261565b80601f016020809104026020016040519081016040528092919081815260200182805461068f90611261565b80156106dc5780601f106106b1576101008083540402835291602001916106dc565b820191906000526020600020905b8154815290600101906020018083116106bf57829003601f168201915b5050505050908060020160009054906101000a900473ffffffffffffffffffffffffffffffffffffffff16908060030154905084565b6001602052806000526040600020600091509050805461073190611261565b80601f016020809104026020016040519081016040528092919081815260200182805461075d90611261565b80156107aa5780601f1061077f576101008083540402835291602001916107aa565b820191906000526020600020905b81548152906001019060200180831161078d57829003601f168201915b505050505081565b6107bb33610aa4565b6107fa576040517f08c379a00000000000000000000000000000000000000000000000000000000081526004016107f190610fdb565b60405180910390fd5b6006600082815260200190815260200160002060020160009054906101000a900473ffffffffffffffffffffffffffffffffffffffff1673ffffffffffffffffffffffffffffffffffffffff163373ffffffffffffffffffffffffffffffffffffffff16141561089f576040517f08c379a000000000000000000000000000000000000000000000000000000000815260040161089690610f7b565b60405180910390fd5b6006600082815260200190815260200160002060040160003373ffffffffffffffffffffffffffffffffffffffff1673ffffffffffffffffffffffffffffffffffffffff16815260200190815260200160002060009054906101000a900460ff1615610940576040517f08c379a000000000000000000000000000000000000000000000000000000000815260040161093790610ffb565b60405180910390fd5b60016006600083815260200190815260200160002060040160003373ffffffffffffffffffffffffffffffffffffffff1673ffffffffffffffffffffffffffffffffffffffff16815260200190815260200160002060006101000a81548160ff02191690831515021790555060016006600083815260200190815260200160002060030160008282546109d391906111a3565b92505081905550600060066000838152602001908152602001600020600301541415610aa157610aa0600660008381526020019081526020016000206001018054610a1d90611261565b80601f0160208091040260200160405190810160405280929190818152602001828054610a4990611261565b8015610a965780601f10610a6b57610100808354040283529160200191610a96565b820191906000526020600020905b815481529060010190602001808311610a7957829003601f168201915b5050505050610b79565b5b50565b600080600090505b600580549050811015610b6e578273ffffffffffffffffffffffffffffffffffffffff1660058281548110610b0a577f4e487b7100000000000000000000000000000000000000000000000000000000600052603260045260246000fd5b9060005260206000200160009054906101000a900473ffffffffffffffffffffffffffffffffffffffff1673ffffffffffffffffffffffffffffffffffffffff161415610b5b576001915050610b74565b8080610b66906112c4565b915050610aac565b60009150505b919050565b806001600060025481526020019081526020016000209080519060200190610ba2929190610c03565b507fc1b11f0b7a77415f977445cfbfe4d5dd945a07756a2f4cbe27f93b6c70353d4560025482604051610bd6929190611036565b60405180910390a1600160026000828254610bf1919061114d565b92505081905550600060038190555050565b828054610c0f90611261565b90600052602060002090601f016020900481019282610c315760008555610c78565b82601f10610c4a57805160ff1916838001178555610c78565b82800160010185558215610c78579182015b82811115610c77578251825591602001919060010190610c5c565b5b509050610c859190610c89565b5090565b5b80821115610ca2576000816000905550600101610c8a565b5090565b6000610cb9610cb484611100565b6110db565b905082815260208101848484011115610cd157600080fd5b610cdc84828561121f565b509392505050565b600081359050610cf381611539565b92915050565b600082601f830112610d0a57600080fd5b8135610d1a848260208601610ca6565b91505092915050565b600081359050610d3281611550565b92915050565b600060208284031215610d4a57600080fd5b6000610d5884828501610ce4565b91505092915050565b600060208284031215610d7357600080fd5b600082013567ffffffffffffffff811115610d8d57600080fd5b610d9984828501610cf9565b91505092915050565b600060208284031215610db457600080fd5b6000610dc284828501610d23565b91505092915050565b610dd4816111d7565b82525050565b610de3816111e9565b82525050565b6000610df482611131565b610dfe818561113c565b9350610e0e81856020860161122e565b610e178161139a565b840191505092915050565b6000610e2f602b8361113c565b9150610e3a826113ab565b604082019050919050565b6000610e5260348361113c565b9150610e5d826113fa565b604082019050919050565b6000610e7560158361113c565b9150610e8082611449565b602082019050919050565b6000610e98602e8361113c565b9150610ea382611472565b604082019050919050565b6000610ebb602a8361113c565b9150610ec6826114c1565b604082019050919050565b6000610ede60188361113c565b9150610ee982611510565b602082019050919050565b610efd81611215565b82525050565b6000602082019050610f186000830184610dcb565b92915050565b6000602082019050610f336000830184610dda565b92915050565b60006020820190508181036000830152610f538184610de9565b905092915050565b60006020820190508181036000830152610f7481610e22565b9050919050565b60006020820190508181036000830152610f9481610e45565b9050919050565b60006020820190508181036000830152610fb481610e68565b9050919050565b60006020820190508181036000830152610fd481610e8b565b9050919050565b60006020820190508181036000830152610ff481610eae565b9050919050565b6000602082019050818103600083015261101481610ed1565b9050919050565b60006020820190506110306000830184610ef4565b92915050565b600060408201905061104b6000830185610ef4565b818103602083015261105d8184610de9565b90509392505050565b600060808201905061107b6000830187610ef4565b818103602083015261108d8186610de9565b905061109c6040830185610dcb565b6110a96060830184610ef4565b95945050505050565b60006040820190506110c76000830185610ef4565b6110d46020830184610ef4565b9392505050565b60006110e56110f6565b90506110f18282611293565b919050565b6000604051905090565b600067ffffffffffffffff82111561111b5761111a61136b565b5b6111248261139a565b9050602081019050919050565b600081519050919050565b600082825260208201905092915050565b600061115882611215565b915061116383611215565b9250827fffffffffffffffffffffffffffffffffffffffffffffffffffffffffffffffff038211156111985761119761130d565b5b828201905092915050565b60006111ae82611215565b91506111b983611215565b9250828210156111cc576111cb61130d565b5b828203905092915050565b60006111e2826111f5565b9050919050565b60008115159050919050565b600073ffffffffffffffffffffffffffffffffffffffff82169050919050565b6000819050919050565b82818337600083830152505050565b60005b8381101561124c578082015181840152602081019050611231565b8381111561125b576000848401525b50505050565b6000600282049050600182168061127957607f821691505b6020821081141561128d5761128c61133c565b5b50919050565b61129c8261139a565b810181811067ffffffffffffffff821117156112bb576112ba61136b565b5b80604052505050565b60006112cf82611215565b91507fffffffffffffffffffffffffffffffffffffffffffffffffffffffffffffffff8214156113025761130161130d565b5b600182019050919050565b7f4e487b7100000000000000000000000000000000000000000000000000000000600052601160045260246000fd5b7f4e487b7100000000000000000000000000000000000000000000000000000000600052602260045260246000fd5b7f4e487b7100000000000000000000000000000000000000000000000000000000600052604160045260246000fd5b6000601f19601f8301169050919050565b7f53686f756c64206265206368616e6765642061742074686520626567696e6e6960008201527f6e67206f6620424c4f434b000000000000000000000000000000000000000000602082015250565b7f596f752073686f756c64206e6f7420766f746520796f7572206f776e204d6f6460008201527f656c2c207468617473206368656174696e672121000000000000000000000000602082015250565b7f596f7520617265206e6f7420746865204f574e45520000000000000000000000600082015250565b7f5468697320506572736f6e20697320616c7265616479206f6e65206f6620746860008201527f65207061727469636970616e7473000000000000000000000000000000000000602082015250565b7f596f7520617265206e6f7420696e207468697320436f6e736f727469756d2e2060008201527f474554204f555421212100000000000000000000000000000000000000000000602082015250565b7f596f7520616c726561647920766f746564206d79616e21210000000000000000600082015250565b611542816111d7565b811461154d57600080fd5b50565b61155981611215565b811461156457600080fd5b5056fea26469706673582212202fa1bf742da59c2591421009a7f34d05cf94acfe84f4f64ecd845e6baf8eed8d64736f6c63430008030033",
  "immutableReferences": {},
  "source": "// SPDX-License-Identifier: MIT\r\n\r\npragma solidity 0.8.3;\r\n\r\nimport \"./Ownable.sol\";\r\n\r\ncontract BDML is Ownable{\r\n\r\n    struct Model{\r\n        uint index;\r\n        string model;\r\n        address modelCreator;\r\n        uint votes;\r\n        mapping(address => bool) voteStatus;\r\n    }\r\n    \r\n    mapping(uint => string) public blocks;\r\n    uint public blockNum;\r\n    \r\n    uint public numTxns;\r\n    uint public numParticipants;\r\n    \r\n    address[] participants;\r\n    \r\n    \r\n    mapping(uint => Model) public transactions;\r\n    \r\n    event tnxUpdate(uint numTxns, uint blockNumber);\r\n    event blockUpdate(uint blockNumber, string model);\r\n    \r\n    constructor() {\r\n        participants.push(_owner);\r\n        numParticipants = 1;\r\n        blocks[blockNum] = \"0x0\";\r\n    }\r\n\r\n    function isParticipant(address _person) private view returns(bool){\r\n        uint i;\r\n        for(i = 0; i < participants.length; i++){\r\n            if(participants[i] == _person)\r\n                return true;\r\n        }\r\n        return false;\r\n    }\r\n    \r\n    function addParticipants(address _person) public onlyOwner{\r\n        require(numTxns == 0, \"Should be changed at the beginning of BLOCK\");\r\n        require(!isParticipant(_person), \"This Person is already one of the participants\");\r\n        participants.push(_person);\r\n        numParticipants += 1;\r\n    }\r\n    \r\n    function uploadModel(string memory  _model) public {\r\n        require(isParticipant(msg.sender), \"You are not in this Consortium. GET OUT!!!\");\r\n        numTxns++;\r\n        Model storage m = transactions[numTxns];\r\n        m.index = numTxns;\r\n        m.model = _model;\r\n        m.modelCreator = msg.sender;\r\n        m.votes = numParticipants-1;\r\n        \t \t\r\n        emit tnxUpdate(numTxns, blockNum);\r\n    }\r\n    \r\n    function getModel(uint _txnNum) public view returns(string memory){\r\n        require(isParticipant(msg.sender), \"You are not in this Consortium. GET OUT!!!\");\r\n        return transactions[_txnNum].model;\r\n    }\r\n    \r\n    function voting(uint _modelNumber) public{\r\n        require(isParticipant(msg.sender), \"You are not in this Consortium. GET OUT!!!\");\r\n        require(msg.sender != transactions[_modelNumber].modelCreator, \"You should not vote your own Model, thats cheating!!\");\r\n        require(!(transactions[_modelNumber].voteStatus[msg.sender]), \"You already voted myan!!\");\r\n        transactions[_modelNumber].voteStatus[msg.sender] = true;\r\n        transactions[_modelNumber].votes -= 1;\r\n        \r\n        if(transactions[_modelNumber].votes == 0){\r\n            updateBlock( transactions[_modelNumber].model);\r\n        }\r\n        \r\n    }\r\n    \r\n    function updateBlock(string memory _model) private {\r\n        blocks[blockNum] = _model;\r\n        emit blockUpdate(blockNum, _model);\r\n        blockNum +=1;\r\n        numTxns = 0;\r\n    }\r\n}",
  "sourcePath": "C:/Users/ratha/Downloads/Telegram Desktop/aashish/abc/election-2019_update/contracts/BDML.sol",
  "compiler": {
    "name": "solc",
    "version": "0.8.3+commit.8d00100c.Emscripten.clang"
  },
  "schemaVersion": "3.3.2",
  "updatedAt": "2021-04-11T08:06:33.976Z",
  "networkType": "ethereum",
  "devdoc": {
    "kind": "dev",
    "methods": {},
    "version": 1
  },
  "userdoc": {
    "kind": "user",
    "methods": {},
    "version": 1
  }
}